{
  "transactions": [
    {
      "hash": "0x2f2084797c7ebff7b02c752e6b06d464872bd86963e1fb51edcf79b50d5c05ea",
      "transactionType": "CALL",
      "contractName": null,
      "contractAddress": "0xe132403fb9998cdde2e6cf3eef3b55617ffe16aa",
      "function": "registerSeller(bytes8,string,bool,bool,uint256)",
      "arguments": [
        "0x646a716d34703500",
        "test-seller-hiltonhead",
        "true",
        "true",
        "10"
      ],
      "transaction": {
        "from": "0x40b98f81f19ef4e64633d791f24c886ce8dcf99c",
        "to": "0xe132403fb9998cdde2e6cf3eef3b55617ffe16aa",
        "gas": "0x71abe",
        "value": "0x0",
        "input": "0x0953347e646a716d3470350000000000000000000000000000000000000000000000000000000000000000000000000000000000000000000000000000000000000000a000000000000000000000000000000000000000000000000000000000000000010000000000000000000000000000000000000000000000000000000000000001000000000000000000000000000000000000000000000000000000000000000a0000000000000000000000000000000000000000000000000000000000000016746573742d73656c6c65722d68696c746f6e6865616400000000000000000000",
        "nonce": "0x24",
        "chainId": "0x14a34"
      },
      "additionalContracts": [],
      "isFixedGasLimit": false
    },
    {
      "hash": "0x94b77fd5afb1c37cfe9605f393d688348f99fc214aa98ae87b3bd6a4e7f46358",
      "transactionType": "CALL",
      "contractName": null,
      "contractAddress": "0xe132403fb9998cdde2e6cf3eef3b55617ffe16aa",
      "function": "createListing(string,uint256,uint256)",
      "arguments": [
        "test-tomatoes",
        "5000000000000000000",
        "100"
      ],
      "transaction": {
        "from": "0x40b98f81f19ef4e64633d791f24c886ce8dcf99c",
        "to": "0xe132403fb9998cdde2e6cf3eef3b55617ffe16aa",
        "gas": "0x3a08f",
        "value": "0x0",
        "input": "0x7950ca9500000000000000000000000000000000000000000000000000000000000000600000000000000000000000000000000000000000000000004563918244f400000000000000000000000000000000000000000000000000000000000000000064000000000000000000000000000000000000000000000000000000000000000d746573742d746f6d61746f657300000000000000000000000000000000000000",
        "nonce": "0x25",
        "chainId": "0x14a34"
      },
      "additionalContracts": [],
      "isFixedGasLimit": false
    },
    {
      "hash": "0x44319532f913d9b4a53801ae4180701e04ce5c40e6e7a4d2b653981700904ca5",
      "transactionType": "CALL",
      "contractName": null,
      "contractAddress": "0xe132403fb9998cdde2e6cf3eef3b55617ffe16aa",
      "function": "createListing(string,uint256,uint256)",
      "arguments": [
        "test-peppers",
        "3000000000000000000",
        "50"
      ],
      "transaction": {
        "from": "0x40b98f81f19ef4e64633d791f24c886ce8dcf99c",
        "to": "0xe132403fb9998cdde2e6cf3eef3b55617ffe16aa",
        "gas": "0x33ecd",
        "value": "0x0",
        "input": "0x7950ca95000000000000000000000000000000000000000000000000000000000000006000000000000000000000000000000000000000000000000029a2241af62c00000000000000000000000000000000000000000000000000000000000000000032000000000000000000000000000000000000000000000000000000000000000c746573742d706570706572730000000000000000000000000000000000000000",
        "nonce": "0x26",
        "chainId": "0x14a34"
      },
      "additionalContracts": [],
      "isFixedGasLimit": false
    },
    {
      "hash": "0xd41e0f344f20049078173f8621127c8fc1bc52af38d6a6c7807c4cdacf50ebcc",
      "transactionType": "CALL",
      "contractName": null,
      "contractAddress": "0xe132403fb9998cdde2e6cf3eef3b55617ffe16aa",
      "function": "createListing(string,uint256,uint256)",
      "arguments": [
        "test-basil",
        "2000000000000000000",
        "25"
      ],
      "transaction": {
        "from": "0x40b98f81f19ef4e64633d791f24c886ce8dcf99c",
        "to": "0xe132403fb9998cdde2e6cf3eef3b55617ffe16aa",
        "gas": "0x33eaa",
        "value": "0x0",
        "input": "0x7950ca9500000000000000000000000000000000000000000000000000000000000000600000000000000000000000000000000000000000000000001bc16d674ec800000000000000000000000000000000000000000000000000000000000000000019000000000000000000000000000000000000000000000000000000000000000a746573742d626173696c00000000000000000000000000000000000000000000",
        "nonce": "0x27",
        "chainId": "0x14a34"
      },
      "additionalContracts": [],
      "isFixedGasLimit": false
    }
  ],
  "receipts": [
    {
      "status": "0x1",
      "cumulativeGasUsed": "0xb5575",
      "logs": [
        {
          "address": "0xe132403fb9998cdde2e6cf3eef3b55617ffe16aa",
          "topics": [
            "0x9dc07f8f53ece86b2c7f5a634da3c0981f87db0e4ff3d3ccf2ab2c42e36f1f84",
            "0x0000000000000000000000000000000000000000000000000000000000000001",
            "0x00000000000000000000000040b98f81f19ef4e64633d791f24c886ce8dcf99c"
          ],
          "data": "0x646a716d34703500000000000000000000000000000000000000000000000000",
          "blockHash": "0x2de052b48556984f739e8955279b3a663621dee2c0b5f9bc5611b9351eab183d",
          "blockNumber": "0x21fd0b1",
          "blockTimestamp": "0x69530042",
          "transactionHash": "0x44319532f913d9b4a53801ae4180701e04ce5c40e6e7a4d2b653981700904ca5",
          "transactionIndex": "0x8",
          "logIndex": "0x7",
          "removed": false
        }
      ],
      "logsBloom": "0x00000000000000000000000000000000000000000000000000200000000000000000000800000000000000000000000000000000000000000000000200040000000000000000000000000000000000000000000000040000000000000000000000000000000000000000000000000000000000000000000011000000000000000000000000000000000040000000000000000000000000000000000000000000000000000000000000000000000000000000000000000000000000000000000000000000000000000080000000000000000004000000000000000000000040000000000000000000000000010000000000000000000000000000000000000000",
      "type": "0x2",
      "transactionHash": "0x44319532f913d9b4a53801ae4180701e04ce5c40e6e7a4d2b653981700904ca5",
      "transactionIndex": "0x8",
      "blockHash": "0x2de052b48556984f739e8955279b3a663621dee2c0b5f9bc5611b9351eab183d",
      "blockNumber": "0x21fd0b1",
      "gasUsed": "0x524be",
      "effectiveGasPrice": "0x124f80",
      "blobGasUsed": "0x7d88",
      "from": "0x40b98f81f19ef4e64633d791f24c886ce8dcf99c",
      "to": "0xe132403fb9998cdde2e6cf3eef3b55617ffe16aa",
      "contractAddress": null,
      "daFootprintGasScalar": "0x138",
      "l1BaseFeeScalar": "0x44d",
      "l1BlobBaseFee": "0x14be1f",
      "l1BlobBaseFeeScalar": "0xa118b",
      "l1Fee": "0x768437b",
      "l1GasPrice": "0x12b79e1",
      "l1GasUsed": "0x67c"
    },
    {
      "status": "0x1",
      "cumulativeGasUsed": "0xdd05f",
      "logs": [
        {
          "address": "0xe132403fb9998cdde2e6cf3eef3b55617ffe16aa",
          "topics": [
            "0x91742a83badc0799d50e43977282f20de359f1094cb0f0317c852fdb2a4c5b0a",
            "0x0000000000000000000000000000000000000000000000000000000000000001",
            "0x0000000000000000000000000000000000000000000000000000000000000001"
          ],
          "data": "0x0000000000000000000000000000000000000000000000004563918244f40000",
          "blockHash": "0x2de052b48556984f739e8955279b3a663621dee2c0b5f9bc5611b9351eab183d",
          "blockNumber": "0x21fd0b1",
          "blockTimestamp": "0x69530042",
          "transactionHash": "0x2f2084797c7ebff7b02c752e6b06d464872bd86963e1fb51edcf79b50d5c05ea",
          "transactionIndex": "0x9",
          "logIndex": "0x8",
          "removed": false
        }
      ],
      "logsBloom": "0x00000000000000000000000000000000000000000000000000200000000000000000000800000000000000000000000000000000000000000000000000040000000000000000000000000000000000000000000000040000000000000000000000000000000000000000000000000000000000000000000000000000000000000000000000000000000000000000000000000000000000000000000000000000000400000000000000000000000000000000000000000000000000000000000000000000000000000000000000000000000000000000002000000000000040000000000000000000000000010000002000000000000000000000000000000000",
      "type": "0x2",
      "transactionHash": "0x2f2084797c7ebff7b02c752e6b06d464872bd86963e1fb51edcf79b50d5c05ea",
      "transactionIndex": "0x9",
      "blockHash": "0x2de052b48556984f739e8955279b3a663621dee2c0b5f9bc5611b9351eab183d",
      "blockNumber": "0x21fd0b1",
      "gasUsed": "0x27aea",
      "effectiveGasPrice": "0x124f80",
      "blobGasUsed": "0x79e0",
      "from": "0x40b98f81f19ef4e64633d791f24c886ce8dcf99c",
      "to": "0xe132403fb9998cdde2e6cf3eef3b55617ffe16aa",
      "contractAddress": null,
      "daFootprintGasScalar": "0x138",
      "l1BaseFeeScalar": "0x44d",
      "l1BlobBaseFee": "0x14be1f",
      "l1BlobBaseFeeScalar": "0xa118b",
      "l1Fee": "0x768437b",
      "l1GasPrice": "0x12b79e1",
      "l1GasUsed": "0x640"
    },
    {
      "status": "0x1",
      "cumulativeGasUsed": "0x100871",
      "logs": [
        {
          "address": "0xe132403fb9998cdde2e6cf3eef3b55617ffe16aa",
          "topics": [
            "0x91742a83badc0799d50e43977282f20de359f1094cb0f0317c852fdb2a4c5b0a",
            "0x0000000000000000000000000000000000000000000000000000000000000002",
            "0x0000000000000000000000000000000000000000000000000000000000000001"
          ],
          "data": "0x00000000000000000000000000000000000000000000000029a2241af62c0000",
          "blockHash": "0x2de052b48556984f739e8955279b3a663621dee2c0b5f9bc5611b9351eab183d",
          "blockNumber": "0x21fd0b1",
          "blockTimestamp": "0x69530042",
          "transactionHash": "0xd41e0f344f20049078173f8621127c8fc1bc52af38d6a6c7807c4cdacf50ebcc",
          "transactionIndex": "0xa",
          "logIndex": "0x9",
          "removed": false
        }
      ],
      "logsBloom": "0x04000000000000000000000000000000000000000000000000200000000000000000000800000000000000000000000000000000000000000000000000040000000000000000000000000000000000000000000000040000000000000000000000000000000000000000000000000000000000000000000000000000000000000000000000000000000000000000000000000000000000000000000000000000000400000000000000000100000000000000000000000000000000000000000000000000000000000000000000000000000000000000002000000000000040000000000000000000000000010000002000000000008000000000000000000000",
      "type": "0x2",
      "transactionHash": "0xd41e0f344f20049078173f8621127c8fc1bc52af38d6a6c7807c4cdacf50ebcc",
      "transactionIndex": "0xa",
      "blockHash": "0x2de052b48556984f739e8955279b3a663621dee2c0b5f9bc5611b9351eab183d",
      "blockNumber": "0x21fd0b1",
      "gasUsed": "0x23812",
      "effectiveGasPrice": "0x124f80",
      "blobGasUsed": "0x79e0",
      "from": "0x40b98f81f19ef4e64633d791f24c886ce8dcf99c",
      "to": "0xe132403fb9998cdde2e6cf3eef3b55617ffe16aa",
      "contractAddress": null,
      "daFootprintGasScalar": "0x138",
      "l1BaseFeeScalar": "0x44d",
      "l1BlobBaseFee": "0x14be1f",
      "l1BlobBaseFeeScalar": "0xa118b",
      "l1Fee": "0x768437b",
      "l1GasPrice": "0x12b79e1",
      "l1GasUsed": "0x640"
    },
    {
      "status": "0x1",
      "cumulativeGasUsed": "0x12406b",
      "logs": [
        {
          "address": "0xe132403fb9998cdde2e6cf3eef3b55617ffe16aa",
          "topics": [
            "0x91742a83badc0799d50e43977282f20de359f1094cb0f0317c852fdb2a4c5b0a",
            "0x0000000000000000000000000000000000000000000000000000000000000003",
            "0x0000000000000000000000000000000000000000000000000000000000000001"
          ],
          "data": "0x0000000000000000000000000000000000000000000000001bc16d674ec80000",
          "blockHash": "0x2de052b48556984f739e8955279b3a663621dee2c0b5f9bc5611b9351eab183d",
          "blockNumber": "0x21fd0b1",
          "blockTimestamp": "0x69530042",
          "transactionHash": "0x94b77fd5afb1c37cfe9605f393d688348f99fc214aa98ae87b3bd6a4e7f46358",
          "transactionIndex": "0xb",
          "logIndex": "0xa",
          "removed": false
        }
      ],
      "logsBloom": "0x00000000000000000000000000000000000000000000000000200000000000000000000800000000000000000000000000000000020000000000000000040000000000000000000000000000000000000000000000040000000000000000000000000000000000000000000000000000000000000000000000000000000000000000000000000000000000000000000000000000000000000000000000000000000400000000000000000000000000000000000000800000000000000000400000000000000000000000000000000000000000000000002000000000000040000000000000000000000000010000002000000000000000000000000000000000",
      "type": "0x2",
      "transactionHash": "0x94b77fd5afb1c37cfe9605f393d688348f99fc214aa98ae87b3bd6a4e7f46358",
      "transactionIndex": "0xb",
      "blockHash": "0x2de052b48556984f739e8955279b3a663621dee2c0b5f9bc5611b9351eab183d",
      "blockNumber": "0x21fd0b1",
      "gasUsed": "0x237fa",
      "effectiveGasPrice": "0x124f80",
      "blobGasUsed": "0x79e0",
      "from": "0x40b98f81f19ef4e64633d791f24c886ce8dcf99c",
      "to": "0xe132403fb9998cdde2e6cf3eef3b55617ffe16aa",
      "contractAddress": null,
      "daFootprintGasScalar": "0x138",
      "l1BaseFeeScalar": "0x44d",
      "l1BlobBaseFee": "0x14be1f",
      "l1BlobBaseFeeScalar": "0xa118b",
      "l1Fee": "0x768437b",
      "l1GasPrice": "0x12b79e1",
      "l1GasUsed": "0x640"
    }
  ],
  "libraries": [],
  "pending": [],
  "returns": {},
  "timestamp": 1767047233006,
  "chain": 84532,
  "commit": "42ec209"
}