{
  "transactions": [
    {
      "hash": "0x015d173d82681e2163d52cba3722dc292d96a1cc253dcfbb928e00a5f9bb21fe",
      "transactionType": "CALL",
      "contractName": null,
      "contractAddress": "0xed1d47e097e855c1d8901dc9ecebe21dd5760c39",
      "function": "registerSeller(bytes8,string,bool,bool,uint256)",
      "arguments": [
        "0x646a716d34703500",
        "test-seller-hiltonhead",
        "true",
        "true",
        "10"
      ],
      "transaction": {
        "from": "0x40b98f81f19ef4e64633d791f24c886ce8dcf99c",
        "to": "0xed1d47e097e855c1d8901dc9ecebe21dd5760c39",
        "gas": "0x71abe",
        "value": "0x0",
        "input": "0x0953347e646a716d3470350000000000000000000000000000000000000000000000000000000000000000000000000000000000000000000000000000000000000000a000000000000000000000000000000000000000000000000000000000000000010000000000000000000000000000000000000000000000000000000000000001000000000000000000000000000000000000000000000000000000000000000a0000000000000000000000000000000000000000000000000000000000000016746573742d73656c6c65722d68696c746f6e6865616400000000000000000000",
        "nonce": "0x18",
        "chainId": "0x14a34"
      },
      "additionalContracts": [],
      "isFixedGasLimit": false
    },
    {
      "hash": "0xd156acee9f095898ad49db2364ebb0c553465d537418c727702bb4ac72f0f432",
      "transactionType": "CALL",
      "contractName": null,
      "contractAddress": "0xed1d47e097e855c1d8901dc9ecebe21dd5760c39",
      "function": "createListing(string,uint256,uint256)",
      "arguments": [
        "test-tomatoes",
        "5000000000000000000",
        "100"
      ],
      "transaction": {
        "from": "0x40b98f81f19ef4e64633d791f24c886ce8dcf99c",
        "to": "0xed1d47e097e855c1d8901dc9ecebe21dd5760c39",
        "gas": "0x36ce9",
        "value": "0x0",
        "input": "0x7950ca9500000000000000000000000000000000000000000000000000000000000000600000000000000000000000000000000000000000000000004563918244f400000000000000000000000000000000000000000000000000000000000000000064000000000000000000000000000000000000000000000000000000000000000d746573742d746f6d61746f657300000000000000000000000000000000000000",
        "nonce": "0x19",
        "chainId": "0x14a34"
      },
      "additionalContracts": [],
      "isFixedGasLimit": false
    },
    {
      "hash": "0x3d99ac358417c57b678bfeb7bc10b9d8f5db857a143d8d2b8c1a0bc5a1ca6bf7",
      "transactionType": "CALL",
      "contractName": null,
      "contractAddress": "0xed1d47e097e855c1d8901dc9ecebe21dd5760c39",
      "function": "createListing(string,uint256,uint256)",
      "arguments": [
        "test-peppers",
        "3000000000000000000",
        "50"
      ],
      "transaction": {
        "from": "0x40b98f81f19ef4e64633d791f24c886ce8dcf99c",
        "to": "0xed1d47e097e855c1d8901dc9ecebe21dd5760c39",
        "gas": "0x31095",
        "value": "0x0",
        "input": "0x7950ca95000000000000000000000000000000000000000000000000000000000000006000000000000000000000000000000000000000000000000029a2241af62c00000000000000000000000000000000000000000000000000000000000000000032000000000000000000000000000000000000000000000000000000000000000c746573742d706570706572730000000000000000000000000000000000000000",
        "nonce": "0x1a",
        "chainId": "0x14a34"
      },
      "additionalContracts": [],
      "isFixedGasLimit": false
    },
    {
      "hash": "0xd762535943b6fc4323a913699cb5721c597de600a515ca47368b57f02db6f0d0",
      "transactionType": "CALL",
      "contractName": null,
      "contractAddress": "0xed1d47e097e855c1d8901dc9ecebe21dd5760c39",
      "function": "createListing(string,uint256,uint256)",
      "arguments": [
        "test-basil",
        "2000000000000000000",
        "25"
      ],
      "transaction": {
        "from": "0x40b98f81f19ef4e64633d791f24c886ce8dcf99c",
        "to": "0xed1d47e097e855c1d8901dc9ecebe21dd5760c39",
        "gas": "0x31074",
        "value": "0x0",
        "input": "0x7950ca9500000000000000000000000000000000000000000000000000000000000000600000000000000000000000000000000000000000000000001bc16d674ec800000000000000000000000000000000000000000000000000000000000000000019000000000000000000000000000000000000000000000000000000000000000a746573742d626173696c00000000000000000000000000000000000000000000",
        "nonce": "0x1b",
        "chainId": "0x14a34"
      },
      "additionalContracts": [],
      "isFixedGasLimit": false
    }
  ],
  "receipts": [
    {
      "status": "0x1",
      "cumulativeGasUsed": "0x1d488a",
      "logs": [
        {
          "address": "0xed1d47e097e855c1d8901dc9ecebe21dd5760c39",
          "topics": [
            "0x9dc07f8f53ece86b2c7f5a634da3c0981f87db0e4ff3d3ccf2ab2c42e36f1f84",
            "0x0000000000000000000000000000000000000000000000000000000000000001",
            "0x00000000000000000000000040b98f81f19ef4e64633d791f24c886ce8dcf99c"
          ],
          "data": "0x646a716d34703500000000000000000000000000000000000000000000000000",
          "blockHash": "0xba4490857cb3f878398ee03300808f139ea74525e04b23a44d5dcff4998cdc11",
          "blockNumber": "0x21f4ca0",
          "blockTimestamp": "0x6951f820",
          "transactionHash": "0x015d173d82681e2163d52cba3722dc292d96a1cc253dcfbb928e00a5f9bb21fe",
          "transactionIndex": "0x8",
          "logIndex": "0x35",
          "removed": false
        }
      ],
      "logsBloom": "0x00000000000000000000000000000000000000000000000000000000000000000000000000000000000080000000000000000000000000000000000200040000000000000000000000000000000000000000000000040000000000000000000000000000000000000000000000000000000000000000000011000000000000000000000000000000000040000000000000000000000000000000000020000000000000000000000000000000000000000000000000000000000000000000000000000000000000000080000000000000000004000000000000000000000040000000000000000000000000000000000000000000000008000000000000000000",
      "type": "0x2",
      "transactionHash": "0x015d173d82681e2163d52cba3722dc292d96a1cc253dcfbb928e00a5f9bb21fe",
      "transactionIndex": "0x8",
      "blockHash": "0xba4490857cb3f878398ee03300808f139ea74525e04b23a44d5dcff4998cdc11",
      "blockNumber": "0x21f4ca0",
      "gasUsed": "0x524be",
      "effectiveGasPrice": "0x124f80",
      "blobGasUsed": "0x7d88",
      "from": "0x40b98f81f19ef4e64633d791f24c886ce8dcf99c",
      "to": "0xed1d47e097e855c1d8901dc9ecebe21dd5760c39",
      "contractAddress": null,
      "daFootprintGasScalar": "0x138",
      "l1BaseFeeScalar": "0x44d",
      "l1BlobBaseFee": "0x2",
      "l1BlobBaseFeeScalar": "0xa118b",
      "l1Fee": "0xd3",
      "l1GasPrice": "0x2d",
      "l1GasUsed": "0x67c"
    },
    {
      "status": "0x1",
      "cumulativeGasUsed": "0x1fc369",
      "logs": [
        {
          "address": "0xed1d47e097e855c1d8901dc9ecebe21dd5760c39",
          "topics": [
            "0x91742a83badc0799d50e43977282f20de359f1094cb0f0317c852fdb2a4c5b0a",
            "0x0000000000000000000000000000000000000000000000000000000000000001",
            "0x0000000000000000000000000000000000000000000000000000000000000001"
          ],
          "data": "0x0000000000000000000000000000000000000000000000004563918244f40000",
          "blockHash": "0xba4490857cb3f878398ee03300808f139ea74525e04b23a44d5dcff4998cdc11",
          "blockNumber": "0x21f4ca0",
          "blockTimestamp": "0x6951f820",
          "transactionHash": "0x3d99ac358417c57b678bfeb7bc10b9d8f5db857a143d8d2b8c1a0bc5a1ca6bf7",
          "transactionIndex": "0x9",
          "logIndex": "0x36",
          "removed": false
        }
      ],
      "logsBloom": "0x00000000000000000000000000000000000000000000000000000000000000000000000000000000000080000000000000000000000000000000000000040000000000000000000000000000000000000000000000040000000000000000000000000000000000000000000000000000000000000000000000000000000000000000000000000000000000000000000000000000000000000000000020000000000400000000000000000000000000000000000000000000000000000000000000000000000000000000000000000000000000000000002000000000000040000000000000000000000000000000002000000000000008000000000000000000",
      "type": "0x2",
      "transactionHash": "0x3d99ac358417c57b678bfeb7bc10b9d8f5db857a143d8d2b8c1a0bc5a1ca6bf7",
      "transactionIndex": "0x9",
      "blockHash": "0xba4490857cb3f878398ee03300808f139ea74525e04b23a44d5dcff4998cdc11",
      "blockNumber": "0x21f4ca0",
      "gasUsed": "0x27adf",
      "effectiveGasPrice": "0x124f80",
      "blobGasUsed": "0x79e0",
      "from": "0x40b98f81f19ef4e64633d791f24c886ce8dcf99c",
      "to": "0xed1d47e097e855c1d8901dc9ecebe21dd5760c39",
      "contractAddress": null,
      "daFootprintGasScalar": "0x138",
      "l1BaseFeeScalar": "0x44d",
      "l1BlobBaseFee": "0x2",
      "l1BlobBaseFeeScalar": "0xa118b",
      "l1Fee": "0xd3",
      "l1GasPrice": "0x2d",
      "l1GasUsed": "0x640"
    },
    {
      "status": "0x1",
      "cumulativeGasUsed": "0x21fb70",
      "logs": [
        {
          "address": "0xed1d47e097e855c1d8901dc9ecebe21dd5760c39",
          "topics": [
            "0x91742a83badc0799d50e43977282f20de359f1094cb0f0317c852fdb2a4c5b0a",
            "0x0000000000000000000000000000000000000000000000000000000000000002",
            "0x0000000000000000000000000000000000000000000000000000000000000001"
          ],
          "data": "0x00000000000000000000000000000000000000000000000029a2241af62c0000",
          "blockHash": "0xba4490857cb3f878398ee03300808f139ea74525e04b23a44d5dcff4998cdc11",
          "blockNumber": "0x21f4ca0",
          "blockTimestamp": "0x6951f820",
          "transactionHash": "0xd156acee9f095898ad49db2364ebb0c553465d537418c727702bb4ac72f0f432",
          "transactionIndex": "0xa",
          "logIndex": "0x37",
          "removed": false
        }
      ],
      "logsBloom": "0x04000000000000000000000000000000000000000000000000000000000000000000000000000000000080000000000000000000000000000000000000040000000000000000000000000000000000000000000000040000000000000000000000000000000000000000000000000000000000000000000000000000000000000000000000000000000000000000000000000000000000000000000020000000000400000000000000000100000000000000000000000000000000000000000000000000000000000000000000000000000000000000002000000000000040000000000000000000000000000000002000000000008008000000000000000000",
      "type": "0x2",
      "transactionHash": "0xd156acee9f095898ad49db2364ebb0c553465d537418c727702bb4ac72f0f432",
      "transactionIndex": "0xa",
      "blockHash": "0xba4490857cb3f878398ee03300808f139ea74525e04b23a44d5dcff4998cdc11",
      "blockNumber": "0x21f4ca0",
      "gasUsed": "0x23807",
      "effectiveGasPrice": "0x124f80",
      "blobGasUsed": "0x79e0",
      "from": "0x40b98f81f19ef4e64633d791f24c886ce8dcf99c",
      "to": "0xed1d47e097e855c1d8901dc9ecebe21dd5760c39",
      "contractAddress": null,
      "daFootprintGasScalar": "0x138",
      "l1BaseFeeScalar": "0x44d",
      "l1BlobBaseFee": "0x2",
      "l1BlobBaseFeeScalar": "0xa118b",
      "l1Fee": "0xd3",
      "l1GasPrice": "0x2d",
      "l1GasUsed": "0x640"
    },
    {
      "status": "0x1",
      "cumulativeGasUsed": "0x24335f",
      "logs": [
        {
          "address": "0xed1d47e097e855c1d8901dc9ecebe21dd5760c39",
          "topics": [
            "0x91742a83badc0799d50e43977282f20de359f1094cb0f0317c852fdb2a4c5b0a",
            "0x0000000000000000000000000000000000000000000000000000000000000003",
            "0x0000000000000000000000000000000000000000000000000000000000000001"
          ],
          "data": "0x0000000000000000000000000000000000000000000000001bc16d674ec80000",
          "blockHash": "0xba4490857cb3f878398ee03300808f139ea74525e04b23a44d5dcff4998cdc11",
          "blockNumber": "0x21f4ca0",
          "blockTimestamp": "0x6951f820",
          "transactionHash": "0xd762535943b6fc4323a913699cb5721c597de600a515ca47368b57f02db6f0d0",
          "transactionIndex": "0xb",
          "logIndex": "0x38",
          "removed": false
        }
      ],
      "logsBloom": "0x00000000000000000000000000000000000000000000000000000000000000000000000000000000000080000000000000000000020000000000000000040000000000000000000000000000000000000000000000040000000000000000000000000000000000000000000000000000000000000000000000000000000000000000000000000000000000000000000000000000000000000000000020000000000400000000000000000000000000000000000000800000000000000000400000000000000000000000000000000000000000000000002000000000000040000000000000000000000000000000002000000000000008000000000000000000",
      "type": "0x2",
      "transactionHash": "0xd762535943b6fc4323a913699cb5721c597de600a515ca47368b57f02db6f0d0",
      "transactionIndex": "0xb",
      "blockHash": "0xba4490857cb3f878398ee03300808f139ea74525e04b23a44d5dcff4998cdc11",
      "blockNumber": "0x21f4ca0",
      "gasUsed": "0x237ef",
      "effectiveGasPrice": "0x124f80",
      "blobGasUsed": "0x79e0",
      "from": "0x40b98f81f19ef4e64633d791f24c886ce8dcf99c",
      "to": "0xed1d47e097e855c1d8901dc9ecebe21dd5760c39",
      "contractAddress": null,
      "daFootprintGasScalar": "0x138",
      "l1BaseFeeScalar": "0x44d",
      "l1BlobBaseFee": "0x2",
      "l1BlobBaseFeeScalar": "0xa118b",
      "l1Fee": "0xd3",
      "l1GasPrice": "0x2d",
      "l1GasUsed": "0x640"
    }
  ],
  "libraries": [],
  "pending": [],
  "returns": {},
  "timestamp": 1766979615779,
  "chain": 84532,
  "commit": "42ec209"
}