{
  "transactions": [
    {
      "hash": "0x538a8229284a216b3358965f1899bd8b4ed3f2661847be1c0842939b378c5f06",
      "transactionType": "CREATE",
      "contractName": "MultiFounderVesting",
      "contractAddress": "0x738429a4384d6e8c6fe256a54c4fd174cc0c0478",
      "function": null,
      "arguments": [
        "0xffDAa58B1EB72c81ba8B728880b18A8E52409Ac7"
      ],
      "transaction": {
        "from": "0x40b98f81f19ef4e64633d791f24c886ce8dcf99c",
        "gas": "0x10cc7c",
        "value": "0x0",
        "input": "0x60c0346100f157601f610ef138819003918201601f19168301916001600160401b038311848410176100f5578084926020946040528339810103126100f157516001600160a01b038116908190036100f15780156100ac576080525f80546001600160a01b031916331790554260a052604051610de7908161010a8239608051818181610104015281816106070152610c54015260a05181818161071d015281816108de0152610a920152f35b60405162461bcd60e51b815260206004820152601560248201527f496e76616c696420746f6b656e206164647265737300000000000000000000006044820152606490fd5b5f80fd5b634e487b7160e01b5f52604160045260245ffdfe6080604090808252600480361015610015575f80fd5b5f3560e01c918263015677391461097157508163158ef93e1461095057816320df1344146108c3578163366dc08314610860578163384711cc1461083057816345f7f249146108125781634cfc4d30146107f457816375829def1461074057816378e97925146107065781638129fc1c146105a957816386d1a69f14610590578163913b722c146104ce5781639e761bbb1461048e578163a3f8eace14610457578163a9610655146101a8578163b3daa6521461018b578163ec0904f71461015e57508063f851a440146101375763fc0c546a146100f1575f80fd5b34610133575f36600319011261013357517f00000000000000000000000000000000000000000000000000000000000000006001600160a01b03168152602090f35b5f80fd5b5034610133575f366003190112610133575f5490516001600160a01b039091168152602090f35b3461013357602036600319011261013357356001600160a01b03811681036101335761018990610bf2565b005b8234610133575f366003190112610133576020905162ed4e008152f35b823461013357806003193601126101335767ffffffffffffffff918035838111610133576101d99036908301610a0e565b90926024918235868111610133576101f49036908601610a0e565b5f5491956001600160a01b039390926102109085163314610b03565b61021e60ff84541615610b3c565b81810361041c575f5b81811061023057005b61023b81838b610be2565b358581168091036101335761025182858b610be2565b3581156103da57801561039f57815f5260019060209180835260ff60028b5f2001541661035d578951606081018f81118282101761034b578b528281526002848201915f83528c810192848452875f528487528d5f20915182555184820155019051151560ff801983541691161790556002549068010000000000000000821015610339579161030c827fe6b83177f11971ba30369bb38b914ffba97d5969a3c857b286fa8fdbb150b3ba94600198979694016002556109c5565b908054600392831b908d88831b921b191617905561032b828254610a3f565b90558a51908152a201610227565b8b60418a634e487b7160e01b5f52525ffd5b8c60418b634e487b7160e01b5f52525ffd5b895162461bcd60e51b81528089018490526019818d01527f42656e656669636961727920616c7265616479206164646564000000000000006044820152606490fd5b875162461bcd60e51b81526020818801526016818b0152750416c6c6f636174696f6e206d757374206265203e20360541b6044820152606490fd5b875162461bcd60e51b8152602081880152601b818b01527f496e76616c69642062656e6566696369617279206164647265737300000000006044820152606490fd5b845162461bcd60e51b815260208185015260168188015275082e4e4c2f2e640d8cadccee8d040dad2e6dac2e8c6d60531b6044820152606490fd5b9050346101335760203660031901126101335735906001600160a01b038216820361013357610487602092610bb4565b9051908152f35b905034610133576020366003190112610133573590600254821015610133576104b86020926109c5565b905491519160018060a01b039160031b1c168152f35b8234610133575f3660031901126101335780519081600254908181526020809101809260025f527f405787fa12a823e0f2b7631cc41b3ba8828b3321ca811111fa75cd3aa3bb5ace905f5b818110610573575050508461052f910385610b7e565b825181815293518185018190528493840192915f5b82811061055357505050500390f35b83516001600160a01b031685528695509381019392810192600101610544565b82546001600160a01b031684529284019260019283019201610519565b34610133575f3660031901126101335761018933610bf2565b905034610133575f366003190112610133575f546001600160a01b03906105d39082163314610b03565b8154906105e360ff831615610b3c565b600254156106ca5760206024918551928380926370a0823160e01b825230888301527f0000000000000000000000000000000000000000000000000000000000000000165afa9081156106c0575f9161068e575b506003541161064b5760ff19166001179055005b506020606492519162461bcd60e51b8352820152601a60248201527f496e73756666696369656e7420746f6b656e2062616c616e63650000000000006044820152fd5b90506020813d6020116106b8575b816106a960209383610b7e565b8101031261013357515f610637565b3d915061069c565b84513d5f823e3d90fd5b835162461bcd60e51b81526020818501526016602482015275139bc818995b99599a58da585c9a595cc8185919195960521b6044820152606490fd5b8234610133575f36600319011261013357602090517f00000000000000000000000000000000000000000000000000000000000000008152f35b905034610133576020366003190112610133576001600160a01b03813581811693919290849003610133575f549283169161077c833314610b03565b84156107b957505082907ff8ccb027dfcd135e000e9d45e6cc2d662578a8825d4c45b5e32e0adf67e79ec65f80a36001600160a01b031916175f55005b906020606492519162461bcd60e51b83528201526015602482015274496e76616c69642061646d696e206164647265737360581b6044820152fd5b8234610133575f36600319011261013357602090516305a39a808152f35b8234610133575f366003190112610133576020906003549051908152f35b9050346101335760203660031901126101335735906001600160a01b038216820361013357610487602092610a6d565b90503461013357602036600319011261013357356001600160a01b03811691828203610133576080925f526001602052805f209160018354930154916108ae6108a883610bb4565b92610a6d565b92815194855260208501528301526060820152f35b8234610133575f3660031901126101335760035490600254907f00000000000000000000000000000000000000000000000000000000000000009062ed4e0082019081831161093d576305a39a80830180931161093d5760ff60a09654169381519586526020860152840152606083015215156080820152f35b601186634e487b7160e01b5f525260245ffd5b8234610133575f3660031901126101335760ff602092541690519015158152f35b91503461013357602036600319011261013357356001600160a01b0381169290839003610133576060925f526001602052805f2080549060ff60026001830154920154169184526020840152151590820152f35b6002548110156109fa5760025f527f405787fa12a823e0f2b7631cc41b3ba8828b3321ca811111fa75cd3aa3bb5ace01905f90565b634e487b7160e01b5f52603260045260245ffd5b9181601f840112156101335782359167ffffffffffffffff8311610133576020808501948460051b01011161013357565b91908201809211610a4c57565b634e487b7160e01b5f52601160045260245ffd5b91908203918211610a4c57565b6001600160a01b03165f908152600160205260409020600281015460ff1615610afe577f000000000000000000000000000000000000000000000000000000000000000062ed4e008101808211610a4c574210610af857610ace9042610a60565b6305a39a809182821015610af15754818102918183041490151715610a4c570490565b9150505490565b50505f90565b505f90565b15610b0a57565b60405162461bcd60e51b815260206004820152600a60248201526927b7363c9030b236b4b760b11b6044820152606490fd5b15610b4357565b60405162461bcd60e51b8152602060048201526013602482015272105b1c9958591e481a5b9a5d1a585b1a5e9959606a1b6044820152606490fd5b90601f8019910116810190811067ffffffffffffffff821117610ba057604052565b634e487b7160e01b5f52604160045260245ffd5b610bdf90610bc181610a6d565b9060018060a01b03165f526001602052600160405f20015490610a60565b90565b91908110156109fa5760051b0190565b9060049160ff83541615610d7b5760018060a01b039081811691825f526020916001835260409060ff6002835f2001541615610d4457610c3190610bb4565b918215610d0a57845f52600184526001825f2001610c50848254610a3f565b90557f00000000000000000000000000000000000000000000000000000000000000009682519163a9059cbb60e01b5f5286825284602452855f604481808d5af160015f5114811615610ceb575b83855215610cd5575050507fc7798891864187665ac6dd119286e44ec13f014527aeeb2b8eb3fd413df931799394955051908152a2565b635274afe760e01b835288169082015260249150fd5b6001811516610d0157893b15153d151616610c9e565b833d5f823e3d90fd5b815162461bcd60e51b815280880185905260146024820152734e6f20746f6b656e7320746f2072656c6561736560601b6044820152606490fd5b815162461bcd60e51b815280880185905260116024820152704e6f7420612062656e656669636961727960781b6044820152606490fd5b60405162461bcd60e51b8152602081850152600f60248201526e139bdd081a5b9a5d1a585b1a5e9959608a1b6044820152606490fdfea264697066735822122068798eff38c53be8d7ad4912730b790068963920e622a07f522bbe429eaf9f8364736f6c63430008180033000000000000000000000000ffdaa58b1eb72c81ba8b728880b18a8e52409ac7",
        "nonce": "0x8e",
        "chainId": "0x14a34"
      },
      "additionalContracts": [],
      "isFixedGasLimit": false
    },
    {
      "hash": "0xb289cec529eccf239758047a0f0edc58a91889f5b8a9bdef7f08fbce053a2c3a",
      "transactionType": "CALL",
      "contractName": "MultiFounderVesting",
      "contractAddress": "0x738429a4384d6e8c6fe256a54c4fd174cc0c0478",
      "function": "addBeneficiaries(address[],uint256[])",
      "arguments": [
        "[0x40b98F81f19eF4e64633D791F24C886Ce8dcF99c, 0xD8d0Eca6E89bff03F7D6fbd7c2830995E9b0A738, 0xab380f058bb9c7D678C2Ab71fDAfAcCca1de9201, 0xdea7493A464581f7DF6cD6258579b581Ac004672, 0x2cbC306b92e36FB5Fb804283015DF969aCC1a528, 0x93DeC435f71D41ed8e4Fc2501596d0CAf9595d64, 0xf88FaDCb1C3333fAb7391472015A299531431D17, 0xb43ff424f22CF4F1E0dDb31d4D65B92D940d0072]",
        "[8500000000000000000000000, 400000000000000000000000, 200000000000000000000000, 200000000000000000000000, 200000000000000000000000, 200000000000000000000000, 200000000000000000000000, 100000000000000000000000]"
      ],
      "transaction": {
        "from": "0x40b98f81f19ef4e64633d791f24c886ce8dcf99c",
        "to": "0x738429a4384d6e8c6fe256a54c4fd174cc0c0478",
        "gas": "0xd9e2c",
        "value": "0x0",
        "input": "0xa961065500000000000000000000000000000000000000000000000000000000000000400000000000000000000000000000000000000000000000000000000000000160000000000000000000000000000000000000000000000000000000000000000800000000000000000000000040b98f81f19ef4e64633d791f24c886ce8dcf99c000000000000000000000000d8d0eca6e89bff03f7d6fbd7c2830995e9b0a738000000000000000000000000ab380f058bb9c7d678c2ab71fdafaccca1de9201000000000000000000000000dea7493a464581f7df6cd6258579b581ac0046720000000000000000000000002cbc306b92e36fb5fb804283015df969acc1a52800000000000000000000000093dec435f71d41ed8e4fc2501596d0caf9595d64000000000000000000000000f88fadcb1c3333fab7391472015a299531431d17000000000000000000000000b43ff424f22cf4f1e0ddb31d4d65b92d940d007200000000000000000000000000000000000000000000000000000000000000080000000000000000000000000000000000000000000707f1ec5dcde3d88000000000000000000000000000000000000000000000000054b40b1f852bda000000000000000000000000000000000000000000000000002a5a058fc295ed000000000000000000000000000000000000000000000000002a5a058fc295ed000000000000000000000000000000000000000000000000002a5a058fc295ed000000000000000000000000000000000000000000000000002a5a058fc295ed000000000000000000000000000000000000000000000000002a5a058fc295ed00000000000000000000000000000000000000000000000000152d02c7e14af6800000",
        "nonce": "0x8f",
        "chainId": "0x14a34"
      },
      "additionalContracts": [],
      "isFixedGasLimit": false
    },
    {
      "hash": "0x295e03d3c66d2ab361dd3a72fcdfa8578953c4ac10704d77483ae30e702a5d29",
      "transactionType": "CALL",
      "contractName": null,
      "contractAddress": "0xffdaa58b1eb72c81ba8b728880b18a8e52409ac7",
      "function": "transfer(address,uint256)",
      "arguments": [
        "0x738429A4384d6e8c6fe256a54c4FD174cC0c0478",
        "10000000000000000000000000"
      ],
      "transaction": {
        "from": "0x40b98f81f19ef4e64633d791f24c886ce8dcf99c",
        "to": "0xffdaa58b1eb72c81ba8b728880b18a8e52409ac7",
        "gas": "0x12684",
        "value": "0x0",
        "input": "0xa9059cbb000000000000000000000000738429a4384d6e8c6fe256a54c4fd174cc0c0478000000000000000000000000000000000000000000084595161401484a000000",
        "nonce": "0x90",
        "chainId": "0x14a34"
      },
      "additionalContracts": [],
      "isFixedGasLimit": false
    },
    {
      "hash": "0xa953b10ae49403e351d21c328a86b08cde88215396cc55395a0932144a1122d2",
      "transactionType": "CALL",
      "contractName": "MultiFounderVesting",
      "contractAddress": "0x738429a4384d6e8c6fe256a54c4fd174cc0c0478",
      "function": "initialize()",
      "arguments": [],
      "transaction": {
        "from": "0x40b98f81f19ef4e64633d791f24c886ce8dcf99c",
        "to": "0x738429a4384d6e8c6fe256a54c4fd174cc0c0478",
        "gas": "0x12bb6",
        "value": "0x0",
        "input": "0x8129fc1c",
        "nonce": "0x91",
        "chainId": "0x14a34"
      },
      "additionalContracts": [],
      "isFixedGasLimit": false
    }
  ],
  "receipts": [
    {
      "status": "0x1",
      "cumulativeGasUsed": "0x21d4dd",
      "logs": [],
      "logsBloom": "0x00000000000000000000000000000000000000000000000000000000000000000000000000000000000000000000000000000000000000000000000000000000000000000000000000000000000000000000000000000000000000000000000000000000000000000000000000000000000000000000000000000000000000000000000000000000000000000000000000000000000000000000000000000000000000000000000000000000000000000000000000000000000000000000000000000000000000000000000000000000000000000000000000000000000000000000000000000000000000000000000000000000000000000000000000000000",
      "type": "0x2",
      "transactionHash": "0xb289cec529eccf239758047a0f0edc58a91889f5b8a9bdef7f08fbce053a2c3a",
      "transactionIndex": "0x3",
      "blockHash": "0x0d08f7c6c9538ff774a0feca629d14a0d3e706c9de9c89d0f1d1553780e26fc6",
      "blockNumber": "0x22093da",
      "gasUsed": "0xcec11",
      "effectiveGasPrice": "0x124f80",
      "blobGasUsed": "0xb0f28",
      "from": "0x40b98f81f19ef4e64633d791f24c886ce8dcf99c",
      "to": null,
      "contractAddress": "0x738429a4384d6e8c6fe256a54c4fd174cc0c0478",
      "daFootprintGasScalar": "0x138",
      "l1BaseFeeScalar": "0x44d",
      "l1BlobBaseFee": "0x1",
      "l1BlobBaseFeeScalar": "0xa118b",
      "l1Fee": "0x50",
      "l1GasPrice": "0x8",
      "l1GasUsed": "0x913d"
    },
    {
      "status": "0x1",
      "cumulativeGasUsed": "0x2bb0cb",
      "logs": [
        {
          "address": "0x738429a4384d6e8c6fe256a54c4fd174cc0c0478",
          "topics": [
            "0xe6b83177f11971ba30369bb38b914ffba97d5969a3c857b286fa8fdbb150b3ba",
            "0x00000000000000000000000040b98f81f19ef4e64633d791f24c886ce8dcf99c"
          ],
          "data": "0x0000000000000000000000000000000000000000000707f1ec5dcde3d8800000",
          "blockHash": "0x0d08f7c6c9538ff774a0feca629d14a0d3e706c9de9c89d0f1d1553780e26fc6",
          "blockNumber": "0x22093da",
          "blockTimestamp": "0x69548694",
          "transactionHash": "0x538a8229284a216b3358965f1899bd8b4ed3f2661847be1c0842939b378c5f06",
          "transactionIndex": "0x4",
          "logIndex": "0x50",
          "removed": false
        },
        {
          "address": "0x738429a4384d6e8c6fe256a54c4fd174cc0c0478",
          "topics": [
            "0xe6b83177f11971ba30369bb38b914ffba97d5969a3c857b286fa8fdbb150b3ba",
            "0x000000000000000000000000d8d0eca6e89bff03f7d6fbd7c2830995e9b0a738"
          ],
          "data": "0x0000000000000000000000000000000000000000000054b40b1f852bda000000",
          "blockHash": "0x0d08f7c6c9538ff774a0feca629d14a0d3e706c9de9c89d0f1d1553780e26fc6",
          "blockNumber": "0x22093da",
          "blockTimestamp": "0x69548694",
          "transactionHash": "0x538a8229284a216b3358965f1899bd8b4ed3f2661847be1c0842939b378c5f06",
          "transactionIndex": "0x4",
          "logIndex": "0x51",
          "removed": false
        },
        {
          "address": "0x738429a4384d6e8c6fe256a54c4fd174cc0c0478",
          "topics": [
            "0xe6b83177f11971ba30369bb38b914ffba97d5969a3c857b286fa8fdbb150b3ba",
            "0x000000000000000000000000ab380f058bb9c7d678c2ab71fdafaccca1de9201"
          ],
          "data": "0x000000000000000000000000000000000000000000002a5a058fc295ed000000",
          "blockHash": "0x0d08f7c6c9538ff774a0feca629d14a0d3e706c9de9c89d0f1d1553780e26fc6",
          "blockNumber": "0x22093da",
          "blockTimestamp": "0x69548694",
          "transactionHash": "0x538a8229284a216b3358965f1899bd8b4ed3f2661847be1c0842939b378c5f06",
          "transactionIndex": "0x4",
          "logIndex": "0x52",
          "removed": false
        },
        {
          "address": "0x738429a4384d6e8c6fe256a54c4fd174cc0c0478",
          "topics": [
            "0xe6b83177f11971ba30369bb38b914ffba97d5969a3c857b286fa8fdbb150b3ba",
            "0x000000000000000000000000dea7493a464581f7df6cd6258579b581ac004672"
          ],
          "data": "0x000000000000000000000000000000000000000000002a5a058fc295ed000000",
          "blockHash": "0x0d08f7c6c9538ff774a0feca629d14a0d3e706c9de9c89d0f1d1553780e26fc6",
          "blockNumber": "0x22093da",
          "blockTimestamp": "0x69548694",
          "transactionHash": "0x538a8229284a216b3358965f1899bd8b4ed3f2661847be1c0842939b378c5f06",
          "transactionIndex": "0x4",
          "logIndex": "0x53",
          "removed": false
        },
        {
          "address": "0x738429a4384d6e8c6fe256a54c4fd174cc0c0478",
          "topics": [
            "0xe6b83177f11971ba30369bb38b914ffba97d5969a3c857b286fa8fdbb150b3ba",
            "0x0000000000000000000000002cbc306b92e36fb5fb804283015df969acc1a528"
          ],
          "data": "0x000000000000000000000000000000000000000000002a5a058fc295ed000000",
          "blockHash": "0x0d08f7c6c9538ff774a0feca629d14a0d3e706c9de9c89d0f1d1553780e26fc6",
          "blockNumber": "0x22093da",
          "blockTimestamp": "0x69548694",
          "transactionHash": "0x538a8229284a216b3358965f1899bd8b4ed3f2661847be1c0842939b378c5f06",
          "transactionIndex": "0x4",
          "logIndex": "0x54",
          "removed": false
        },
        {
          "address": "0x738429a4384d6e8c6fe256a54c4fd174cc0c0478",
          "topics": [
            "0xe6b83177f11971ba30369bb38b914ffba97d5969a3c857b286fa8fdbb150b3ba",
            "0x00000000000000000000000093dec435f71d41ed8e4fc2501596d0caf9595d64"
          ],
          "data": "0x000000000000000000000000000000000000000000002a5a058fc295ed000000",
          "blockHash": "0x0d08f7c6c9538ff774a0feca629d14a0d3e706c9de9c89d0f1d1553780e26fc6",
          "blockNumber": "0x22093da",
          "blockTimestamp": "0x69548694",
          "transactionHash": "0x538a8229284a216b3358965f1899bd8b4ed3f2661847be1c0842939b378c5f06",
          "transactionIndex": "0x4",
          "logIndex": "0x55",
          "removed": false
        },
        {
          "address": "0x738429a4384d6e8c6fe256a54c4fd174cc0c0478",
          "topics": [
            "0xe6b83177f11971ba30369bb38b914ffba97d5969a3c857b286fa8fdbb150b3ba",
            "0x000000000000000000000000f88fadcb1c3333fab7391472015a299531431d17"
          ],
          "data": "0x000000000000000000000000000000000000000000002a5a058fc295ed000000",
          "blockHash": "0x0d08f7c6c9538ff774a0feca629d14a0d3e706c9de9c89d0f1d1553780e26fc6",
          "blockNumber": "0x22093da",
          "blockTimestamp": "0x69548694",
          "transactionHash": "0x538a8229284a216b3358965f1899bd8b4ed3f2661847be1c0842939b378c5f06",
          "transactionIndex": "0x4",
          "logIndex": "0x56",
          "removed": false
        },
        {
          "address": "0x738429a4384d6e8c6fe256a54c4fd174cc0c0478",
          "topics": [
            "0xe6b83177f11971ba30369bb38b914ffba97d5969a3c857b286fa8fdbb150b3ba",
            "0x000000000000000000000000b43ff424f22cf4f1e0ddb31d4d65b92d940d0072"
          ],
          "data": "0x00000000000000000000000000000000000000000000152d02c7e14af6800000",
          "blockHash": "0x0d08f7c6c9538ff774a0feca629d14a0d3e706c9de9c89d0f1d1553780e26fc6",
          "blockNumber": "0x22093da",
          "blockTimestamp": "0x69548694",
          "transactionHash": "0x538a8229284a216b3358965f1899bd8b4ed3f2661847be1c0842939b378c5f06",
          "transactionIndex": "0x4",
          "logIndex": "0x57",
          "removed": false
        }
      ],
      "logsBloom": "0x00000000000002000000000000000000000000000000000000000000000000000100000000000040000400014000000000000000000200000000000000000000040000000000000000000410001000000000000000000000000000000000000800000004000000000000000000000000000000000000000011200000800000000000000000000000000040000000000000000000000000000000000000000000000000000402000000000000000000000000100000400000000000000000000000000004000000000080000000000000000000000008000000000000000000000000000000000000000000020000400000000000020001000000000000000000",
      "type": "0x2",
      "transactionHash": "0x538a8229284a216b3358965f1899bd8b4ed3f2661847be1c0842939b378c5f06",
      "transactionIndex": "0x4",
      "blockHash": "0x0d08f7c6c9538ff774a0feca629d14a0d3e706c9de9c89d0f1d1553780e26fc6",
      "blockNumber": "0x22093da",
      "gasUsed": "0x9dbee",
      "effectiveGasPrice": "0x124f80",
      "blobGasUsed": "0x17628",
      "from": "0x40b98f81f19ef4e64633d791f24c886ce8dcf99c",
      "to": "0x738429a4384d6e8c6fe256a54c4fd174cc0c0478",
      "contractAddress": null,
      "daFootprintGasScalar": "0x138",
      "l1BaseFeeScalar": "0x44d",
      "l1BlobBaseFee": "0x1",
      "l1BlobBaseFeeScalar": "0xa118b",
      "l1Fee": "0x50",
      "l1GasPrice": "0x8",
      "l1GasUsed": "0x1331"
    },
    {
      "status": "0x1",
      "cumulativeGasUsed": "0x2dc954",
      "logs": [
        {
          "address": "0xffdaa58b1eb72c81ba8b728880b18a8e52409ac7",
          "topics": [
            "0xddf252ad1be2c89b69c2b068fc378daa952ba7f163c4a11628f55a4df523b3ef",
            "0x00000000000000000000000040b98f81f19ef4e64633d791f24c886ce8dcf99c",
            "0x000000000000000000000000738429a4384d6e8c6fe256a54c4fd174cc0c0478"
          ],
          "data": "0x000000000000000000000000000000000000000000084595161401484a000000",
          "blockHash": "0x0d08f7c6c9538ff774a0feca629d14a0d3e706c9de9c89d0f1d1553780e26fc6",
          "blockNumber": "0x22093da",
          "blockTimestamp": "0x69548694",
          "transactionHash": "0xa953b10ae49403e351d21c328a86b08cde88215396cc55395a0932144a1122d2",
          "transactionIndex": "0x6",
          "logIndex": "0x5a",
          "removed": false
        }
      ],
      "logsBloom": "0x00000000000000000000000000000000000000000000000000002000000000000000000000000000000800000000000000000000000000000000000000000000000000000000000000000088000000000000000000000000000000000000000000000000000000000000000000000000000200000000000011000010000000000000000000000000000000000000000000000000000000000000000000000000000000000000000000000000000000000000002000000000000000000000000000000002000000000080000000000000000000000000000000000000000000000000000000000000000000000000000000000000000000000000800000000000",
      "type": "0x2",
      "transactionHash": "0xa953b10ae49403e351d21c328a86b08cde88215396cc55395a0932144a1122d2",
      "transactionIndex": "0x6",
      "blockHash": "0x0d08f7c6c9538ff774a0feca629d14a0d3e706c9de9c89d0f1d1553780e26fc6",
      "blockNumber": "0x22093da",
      "gasUsed": "0xc961",
      "effectiveGasPrice": "0x124f80",
      "blobGasUsed": "0x79e0",
      "from": "0x40b98f81f19ef4e64633d791f24c886ce8dcf99c",
      "to": "0xffdaa58b1eb72c81ba8b728880b18a8e52409ac7",
      "contractAddress": null,
      "daFootprintGasScalar": "0x138",
      "l1BaseFeeScalar": "0x44d",
      "l1BlobBaseFee": "0x1",
      "l1BlobBaseFeeScalar": "0xa118b",
      "l1Fee": "0x50",
      "l1GasPrice": "0x8",
      "l1GasUsed": "0x640"
    },
    {
      "status": "0x1",
      "cumulativeGasUsed": "0x2ea251",
      "logs": [],
      "logsBloom": "0x00000000000000000000000000000000000000000000000000000000000000000000000000000000000000000000000000000000000000000000000000000000000000000000000000000000000000000000000000000000000000000000000000000000000000000000000000000000000000000000000000000000000000000000000000000000000000000000000000000000000000000000000000000000000000000000000000000000000000000000000000000000000000000000000000000000000000000000000000000000000000000000000000000000000000000000000000000000000000000000000000000000000000000000000000000000",
      "type": "0x2",
      "transactionHash": "0x295e03d3c66d2ab361dd3a72fcdfa8578953c4ac10704d77483ae30e702a5d29",
      "transactionIndex": "0x7",
      "blockHash": "0x0d08f7c6c9538ff774a0feca629d14a0d3e706c9de9c89d0f1d1553780e26fc6",
      "blockNumber": "0x22093da",
      "gasUsed": "0xd8fd",
      "effectiveGasPrice": "0x124f80",
      "blobGasUsed": "0x79e0",
      "from": "0x40b98f81f19ef4e64633d791f24c886ce8dcf99c",
      "to": "0x738429a4384d6e8c6fe256a54c4fd174cc0c0478",
      "contractAddress": null,
      "daFootprintGasScalar": "0x138",
      "l1BaseFeeScalar": "0x44d",
      "l1BlobBaseFee": "0x1",
      "l1BlobBaseFeeScalar": "0xa118b",
      "l1Fee": "0x50",
      "l1GasPrice": "0x8",
      "l1GasUsed": "0x640"
    }
  ],
  "libraries": [],
  "pending": [],
  "returns": {},
  "timestamp": 1767147155662,
  "chain": 84532,
  "commit": "642ee3e"
}